:020000040000fa
:080000000002040000000000f2
:020000040000fa
:0400080042030000af
:020000040000fa
:04000c0042030000ab
:020000040000fa
:0400100042030000a7
:020000040000fa
:0400140042030000a3
:020000040000fa
:04001800420300009f
:020000040000fa
:04001c00420300009b
:020000040000fa
:040020004203000097
:020000040000fa
:040024004203000093
:020000040000fa
:04002800420300008f
:020000040000fa
:04002c00420300008b
:020000040000fa
:040030004203000087
:020000040000fa
:04003400c8020000fe
:020000040000fa
:04003800260300009b
:020000040000fa
:04003c00420300007b
:020000040000fa
:040040004203000077
:020000040000fa
:040044004203000073
:020000040000fa
:04004800420300006f
:020000040000fa
:04004c00420300006b
:020000040000fa
:040050004203000067
:020000040000fa
:04005400ea020000bc
:020000040000fa
:04005800140300008d
:020000040000fa
:04005c00420300005b
:020000040000fa
:040060004203000057
:020000040000fa
:040064004203000053
:020000040000fa
:04006800420300004f
:020000040000fa
:04006c00420300004b
:020000040000fa
:040070004203000047
:020000040000fa
:040074004203000043
:020000040000fa
:04007800420300003f
:020000040000fa
:04007c00420300003b
:020000040000fa
:040080004203000037
:020000040000fa
:040084004203000033
:020000040000fa
:04008800420300002f
:020000040000fa
:04008c00420300002b
:020000040000fa
:040090004203000027
:020000040000fa
:040094004203000023
:020000040000fa
:04009800420300001f
:020000040000fa
:04009c00420300001b
:020000040000fa
:0400a0004203000017
:020000040000fa
:0400a4004203000013
:020000040000fa
:0400a800420300000f
:020000040000fa
:0400ac00420300000b
:020000040000fa
:0400b0004203000007
:020000040000fa
:0400b4004203000003
:020000040000fa
:0400b80042030000ff
:020000040000fa
:0400bc0042030000fb
:020000040000fa
:0400c00042030000f7
:020000040000fa
:0400c40042030000f3
:020000040000fa
:0400c80042030000ef
:020000040000fa
:0400cc0042030000eb
:020000040000fa
:0400d00042030000e7
:020000040000fa
:0400d40042030000e3
:020000040000fa
:0400d80042030000df
:020000040000fa
:0400dc0042030000db
:020000040000fa
:0400e00042030000d7
:020000040000fa
:0400e40042030000d3
:020000040000fa
:0400e80042030000cf
:020000040000fa
:0400ec0042030000cb
:020000040000fa
:0400f00042030000c7
:020000040000fa
:0400f40042030000c3
:020000040000fa
:0400f80042030000bf
:020000040000fa
:0400fc0042030000bb
:020000040000fa
:0401000042030000b6
:020000040000fa
:0401040042030000b2
:020000040000fa
:0401080042030000ae
:020000040000fa
:04010c0042030000aa
:020000040000fa
:0401100042030000a6
:020000040000fa
:0401140042030000a2
:020000040000fa
:04011800420300009e
:020000040000fa
:04011c00420300009a
:020000040000fa
:040120004203000096
:020000040000fa
:040124004203000092
:020000040000fa
:04012800420300008e
:020000040000fa
:04012c00420300008a
:020000040000fa
:040130004203000086
:020000040000fa
:040134004203000082
:020000040000fa
:04013800420300007e
:020000040000fa
:04013c00420300007a
:020000040000fa
:040140004203000076
:020000040000fa
:040144004203000072
:020000040000fa
:04014800420300006e
:020000040000fa
:04014c00420300006a
:020000040000fa
:040150004203000066
:020000040000fa
:040154004203000062
:020000040000fa
:04015800420300005e
:020000040000fa
:04015c00420300005a
:020000040000fa
:040160004203000056
:020000040000fa
:040164004203000052
:020000040000fa
:0402080042030000ad
:020000040000fa
:04020c0042030000a9
:020000040000fa
:0402100042030000a5
:020000040000fa
:0402140042030000a1
:020000040000fa
:04021800420300009d
:020000040000fa
:04021c004203000099
:020000040000fa
:040220004203000095
:020000040000fa
:040224004203000091
:020000040000fa
:04022800420300008d
:020000040000fa
:04022c004203000089
:020000040000fa
:040230004203000085
:020000040000fa
:040234004203000081
:020000040000fa
:04023800420300007d
:020000040000fa
:04023c004203000079
:020000040000fa
:040240004203000075
:020000040000fa
:040244004203000071
:020000040000fa
:04024800420300006d
:020000040000fa
:04024c004203000069
:020000040000fa
:040250004203000065
:020000040000fa
:040254004203000061
:020000040000fa
:04025800420300005d
:020000040000fa
:04025c004203000059
:020000040000fa
:040260004203000055
:020000040000fa
:040264004203000051
:020000040000fa
:04026800420300004d
:020000040000fa
:04026c004203000049
:020000040000fa
:040270004203000045
:020000040000fa
:040274004203000041
:020000040000fa
:04027800420300003d
:020000040000fa
:04027c004203000039
:020000040000fa
:040280004203000035
:020000040000fa
:040284004203000031
:020000040000fa
:04028800420300002d
:020000040000fa
:04028c004203000029
:020000040000fa
:040290004203000025
:020000040000fa
:040294004203000021
:020000040000fa
:04029800420300001d
:020000040000fa
:04029c004203000019
:020000040000fa
:0402a0004203000015
:020000040000fa
:0402a4004203000011
:020000040000fa
:0402a800420300000d
:020000040000fa
:0402ac004203000009
:020000040000fa
:0402b0004203000005
:020000040000fa
:0402b4004203000001
:020000040000fa
:0402b80042030000fd
:020000040000fa
:0402bc0042030000f9
:020000040000fa
:0402c00042030000f5
:020000040000fa
:0402c40042030000f1
:020000040000fa
:0402c80042030000ed
:020000040000fa
:0402cc0042030000e9
:020000040000fa
:0402d00042030000e5
:020000040000fa
:0402d40042030000e1
:020000040000fa
:0402d80042030000dd
:020000040000fa
:0402dc0042030000d9
:020000040000fa
:0402e00042030000d5
:020000040000fa
:0402e40042030000d1
:020000040000fa
:0402e80042030000cd
:020000040000fa
:0402ec0042030000c9
:020000040000fa
:0402f00042030000c5
:020000040000fa
:0402f40042030000c1
:020000040000fa
:0402f80042030000bd
:020000040000fa
:0402fc0042030000b9
:020000040000fa
:0403000042030000b4
:020000040000fa
:0403040042030000b0
:020000040000fa
:0403080042030000ac
:020000040000fa
:04030c0042030000a8
:020000040000fa
:0403100042030000a4
:020000040000fa
:0403140042030000a0
:020000040000fa
:04031800420300009c
:020000040000fa
:04031c004203000098
:020000040000fa
:040320004203000094
:020000040000fa
:040324004203000090
:020000040000fa
:04032800420300008c
:020000040000fa
:04032c004203000088
:020000040000fa
:040330004203000084
:020000040000fa
:040334004203000080
:020000040000fa
:04033800420300007c
:020000040000fa
:04033c004203000078
:020000040000fa
:040340004203000074
:020000040000fa
:040344004203000070
:020000040000fa
:04034800420300006c
:020000040000fa
:04034c004203000068
:020000040000fa
:040350004203000064
:020000040000fa
:040354004203000060
:020000040000fa
:04035800420300005c
:020000040000fa
:04035c004203000058
:020000040000fa
:040360004203000054
:020000040000fa
:040364004203000050
:020000040000fa
:10040000ef8c2100ce7e24000e0188000000000049
:10041000000020000000e000020032000001200087
:100420002002880014000700980007000000e00088
:1004300003003a00c036210001002000020037000e
:100440000000200001002000810f70000100320038
:1004500014000700000020000000e000020032004d
:100460000000020000000000160e02000000000064
:100470000040da000000fe004440a9000000200017
:100480000000e0000300320000002000a00188000e
:100490004440a800000006008a1f78008b1f7800e7
:1004a0000000060091018800800478000000eb0045
:1004b0001a003700e284440032a0b4009905ba0063
:1004c000e284440032a0b4009906ba00e2844400f9
:1004d00032a0b4000006eb00476fde00fd07b2005b
:1004e000636ce10003003a00ebff07000000eb0043
:1004f0000a003700606ce10004003a00005deb0088
:100500008b05e900fdff3e00040037006168e10053
:10051000010032000086eb000b00070019c7ba008b
:100520001905ba000e04e00003003a000a00e000da
:10053000e0ff3a0000000600fe07b2009e018800be
:100540008a047800f5ff3700395dba008b05e900b1
:100550000c003200295dba008b05e900080032006a
:100560000c00e00003003a00e284440032a0b40032
:10057000f5ff370019ddba008b05e900faff3a00f4
:100580008904e800e184440032a0b40000000600c1
:10059000801f78003400f80000002000a0018800cf
:1005a0000000fa0010002000104088000040800089
:1005b0000000e8000040880010c0b30004e8b70065
:1005c0008460a9000080fa003400f9004f00780030
:1005d000004006003600f800809fbe00829fbe00eb
:1005e000849fbe00869fbe003400f80000002000fb
:1005f000a00188000000fa0030118000004078005f
:100600004a0707008560a9000080fa003400f9005d
:100610004f03be004f02be004f01be004f00be00a0
:100620003600f900004006003400f800881f78000a
:1006300008002000a80188004f0478000000fa009c
:100640000080fa003400f90000400600801f7800a6
:100650003400f80000002000a00188000000fa002b
:10066000e03f820040408800f03f82005040880018
:100670008480a9000080fa003400f9004f0078005f
:10068000004006000040da000000fe000000050007
:1006900003f0a200889fbe008a9fbe008c1f7800d6
:1006a000fa000700010133006450e1004f003200fe
:1006b0006420e1005200320003826c0007003b001e
:1006c0000905d0000306d000820f54000c065d001f
:1006d0000200390002003200890178000306780028
:1006e0008582550004003d000003fd008103fd00ec
:1006f0008502ea008b854200840f720002003b00f5
:1007000060001000e08018006011b8000005eb00e8
:100710007a28e1000a00390006007800c75ddd0094
:10072000f707b200878075002d00370082817100c5
:100730000a017800610560008180d1000080d3004b
:100740008502e900f9ff3b00060440008784480069
:1007500002003b0060041400e0841c000988a30030
:10076000070032008a81710082817100610164009a
:100770008904d1000884d3008b05e80017003700f6
:100780000978a30013003a000b00e00013003400c6
:100790008b05e9000804440089844c000a44740075
:1007a0000978a3000d003a000b00e00007003400b8
:1007b0008b05e9000804440089844c0001003a00dc
:1007c0000b0020000978a300f7ff32000001eb00c6
:1007d00002003700828171000a0178007000070072
:1007e0000cf0a70001f0a000b90037006420e10080
:1007f00002003a00838f6c00b90033000801be008c
:100800000200be00b2003700889fbe008a9fbe0073
:100810008c1f78009d000700a400330003866c0045
:100820006450e1002e0032006420e1003300320009
:100830006150e1002f0032006120e1003100320000
:1008400085855500eb07b000090020000804200052
:10085000050037000804440089844c000a00310078
:100860000603430087834b000001530081815b0036
:10087000f8ff33000203be000800a0000804440093
:1008800089844c00f6ff3900c639dd00830173000e
:1008900001003200130020008904d1000884d30035
:1008a0000998a300050032000800a7000300a0007b
:1008b0008904d1000884d3008b05e8008904d100a5
:1008c0000884d3000001eb000281d200340007004d
:1008d00001f0a1000cf0a70001f0a0007c0037009f
:1008e0006420e1007e0032000801be000200be006c
:1008f000f7ff37006120e100790032006000b800a6
:10090000f3ff37000000200001f82700f0ff370058
:100910000001be00480007000470a70003f0a1001a
:100920006509b100160032000d0035006828e100ad
:1009300006003500f0ff2f00f1ff27000300e00064
:1009400013003b00010028000000050000004000eb
:10095000818048008502e900fcff3a00080037006a
:10096000f88f420002003c008000eb000000050010
:100970008100d1000080d3008502e800fcff3a002e
:100980000300e00002003b0060001000e08018005f
:10099000000006004f89de00820178000402370063
:1009a00081002000618055000b003d000b002000fd
:1009b00061fe2f000100e1001d0034008281710002
:1009c000610164008904d1000884d3000000e800bc
:1009d000faff3a007100200061006400030070001b
:1009e000020060000900320061044400e0844c0011
:1009f0000988a500050032008b05e8006808e100c1
:100a000002003a008904d1000884d300f20f2000cc
:100a10000258e10005003d00c75ddd00f907b200a6
:100a20008980750008007800000006000bf8270098
:100a30008b00780000000500c70ade00f107b20055
:100a4000f50fb20008003200e1cf42000200320090
:100a50000170a00024000500810f70000100320029
:100a60000408050044000500810f700002003a00f0
:100a7000140005008502e9000000400081c0480024
:100a8000fcff3b000170a000240005000004be0034
:100a9000e9ff07000003be000405be000200be001f
:100aa000e5ff0700844f7500000006000200be004d
:100ab0006450e100050036006420e10002003600c9
:100ac0000968a30001003a000800be000160a00010
:100ad0004f0678004f05be004f04be000000060020
:100ae000f0ff2f00f1ff2700f9ff3700889fbe00bd
:100af0008a9fbe008c1f7800e4ff0700ebff3300e5
:100b000003866c006450e100240032006420e100a0
:100b1000270032006150e100220032006120e10034
:100b2000210032008b854200eb07b1000134b80090
:100b3000003ab8000804420089844a00013ab8002b
:100b40000030b8008880400009014a0004003300ea
:100b50000000400081804800020149008b05e90047
:100b6000c909dd008301700001003200130020007c
:100b7000c814de004814dd004709de001200b20090
:100b8000c808de000884700085ff070001f0a1009e
:100b90000cf0a70001f0a000cdff37006120e100bc
:100ba000cfff32000801be000200be00f7ff370091
:100bb0006150e100fcff3a00c9ff37000c00fa0069
:100bc000889fbe008a9fbe008c9fbe00afff0700bb
:100bd0000206be00840578000200be00020020006c
:100be0004801070005003a008b02b3001200200004
:100bf0004401070001003a00f8856d000c01be00b9
:100c0000c60007000800be009b0032000b08a300ce
:100c10009e003a000df0a7000be0a00009f0a7002d
:100c20000bf0a00009f0a1000801be00bb00070006
:100c30000bf0a6009500320001003c000bd0a00094
:100c40008acf7500b20033006000b8006250e10046
:100c500099003900a1003e000b28a300a2003a0031
:100c60000bf8a300060032000b58a300a7003200c7
:100c70000801be00a90007000800be009400320071
:100c80000800be00b00007000004be0005057800a3
:100c90000bf0a7000b30a6000bf0a1005b0798003b
:100ca000324f200053f323003d01070005003d00b3
:100cb0000800be00120020007c0107000004be00f6
:100cc0000a05e9004a0798006150b90031ff0700a2
:100cd000008fbe000c01be0084ff07000cff070060
:100ce000300798000100e00002003d0060001000a5
:100cf000e0801800f2ff2700820f5000e08f5800bc
:100d000064003e000c00be0001ff070020079800b1
:100d1000f2072000820f5000e08f580005003c00d1
:100d200012f82f00f3ff2f00820f5000838f58001e
:100d300009003d000a00e0000300320001003c0011
:100d40000201ea00020578006000b8002007980060
:100d50003a079800190037003e0090006100b90082
:100d60000cff0700809fbe000c00be004109dd00a3
:100d70004811de007208b100e20007000005be0065
:100d80001e01be0059ff07004f01be0040fe0700d4
:100d9000809fbe000c00be000a01be003cfe0700a2
:100da0001e01be0051ff07004f01be0039fe0700c3
:100db0008221270013f323004cff07000005be002b
:100dc0002e0090006100b900f2fe070001f0a200c1
:100dd0000c01be002ffe07000006be000800be008a
:100de000540107000c01be0040ff07000a01be00cd
:100df00028fe0700809fbe004a0007002e059000d5
:100e00000af0a7000a05ea00050037000800be0046
:100e10000801be0035ff07000004be000c00be0044
:100e20000801be000a00a70030ff07000006be0050
:100e30000a05d100f5ff3a005e01900002e0a6002d
:100e4000030037000001be00360007006efe0700f9
:100e50000004be004f00be00480007000801be00ad
:100e600022ff07003e01900010010700de05900000
:100e70000bf0a70001f0a2004f06be004f05be0018
:100e80004f04be000080fa000000060025000700a5
:100e9000f9ff3700270007006000b8000bd0a7005b
:100ea0000bc0a0000be0a7000bc0a2000bc0a70066
:100eb00001f82700f0ff37000df8a3000200320010
:100ec0001e000700190007000bf8a300eaff32001c
:100ed0000b30a70001f0a200e7ff37000df8a300d8
:100ee000f9ff3a00f7ff37000801be000b000700ca
:100ef000e6ff320001003c000df0a2006000b800e7
:100f00000df0a70009000700dbff37000b0007000a
:100f1000f1ff2700f0ff2f00d7ff37000100070087
:100f20009f00370001f823000000050001f82700aa
:100f30000000050020022000010037001002200000
:100f400060418800000006000003be00bafe0700f2
:100f50006220e100020032000600be00050005002c
:100f6000e507b100f107b20004f0230084807000af
:100f700007f0a70001f0a00024000500889fbe0034
:100f80008a9fbe008c9fbe000004be00aafe070020
:100f90000800be006420e10048003e005500320019
:100fa00072212700132b24007f00070047003c001c
:100fb0000800be00c2ec2800e32c2c0078000700db
:100fc000470035000800be0001f0a100020020002b
:100fd0000338230072000700430035000800be00fc
:100fe000b2a32a0083fb2300c0fe070002002000fa
:100ff00003f0230001f0a70003f0a000a5fd070007
:1010000043fe07000005be0062fe070001f0a200db
:101010000006be000200280013f32300b3fe070001
:101020000801be009bfd0700809fbe000c00be00b3
:1010300032082800e3952b00acfe07004f01be00ec
:1010400094fd07000006be000001be00a7fe0700d9
:10105000809fbe004241250083b82300a3fe070005
:101060000200200003e823008afd07000c01be00f7
:101070009efe07000006be004f00be00f2f92b00e6
:10108000c3d4230099fe07000200200003f02300d0
:1010900080fd07000c01be007dfd07000001be00c1
:1010a0000c00be00d8fd07000200200003f0230062
:1010b00078fd0700610145007c0007004f06be0077
:1010c0004f05be004f04be000000060001f82700d7
:1010d000000020002202200062418800f7ff370054
:1010e0006000b800fbff370001f82300000020007b
:1010f000f2ff370009f8a300f0ff32006000b800eb
:10110000eeff3700889fbe008a9fbe000003be002e
:1011100049fe070085057800828152000200200008
:101120006220e10004003a00f307b100040035003a
:101130007718e100040035000600be0014003700f7
:101140006000b8000f003700f50f2000faff2f00f5
:101150008502d1000a85d3008301e900fcff3b0032
:101160008184620000046500890f7400f2ff320080
:101170008582ea000a85ea00818462000004650035
:1011800007fe070007f0a70001f0a0000081eb00b8
:101190000200e0004f05be004f04be000000060044
:1011a00014002000ba003700f4ff2f00b800370009
:1011b000881f7800030478000300e00007003d006a
:1011c00060001000e080180060011900e081190043
:1011d00002003b0001f02d0003003700040007006f
:1011e00008f0a70001f0a0004f04780000000600fe
:1011f000889fbe008a9fbe000082700004027100ba
:1012000004827100260032000004be000200be000d
:101210006011b8006b092000950220000182cf0008
:101220000a0039000541b1000082cf0007003900f3
:101230000541b1000982cf00040039000541b10029
:101240000882cf00010039000541b100054252007b
:10125000120032000a003b008281710061016400cb
:101260008100d1000080d3008984d3000884d3009a
:101270008b05e8000442e800f7ff3a00070037005a
:101280000804440089844c00000048008180480024
:101290008b05e9000442e900f9ff3a00c0fd0700b0
:1012a0004f05be004f04be00000006000003be0054
:1012b000e1fd07006220e100020032000600be00ee
:1012c0000000060085024100e30f20000328e10032
:1012d00005003c00a3fe2f000328e10007003d00ad
:1012e0000500200001003700f50f2000200220003b
:1012f000604188006000b80008003700130020003b
:101300008381520005003d008100d1000080d300a0
:101310008301e800fcff3a0005002000c72add0039
:10132000f107b2008580700007f0a70001f0a0006f
:1013300000000600889fbe008a9fbe008c9fbe00f2
:1013400001ff0700850478000005be006420e1006d
:1013500049003e006220e100030032000900350030
:101360000bf8a300440032000bf8a3000800320081
:101370001002200060418800f0ff2f00f1ff2700dd
:101380003d00370001f82f00000020003a00370030
:101390003d000700befc07000006be000a00be00bc
:1013a000324f200053f323007fff07000600340074
:1013b0000c00be0034000700b5fc07000006be00ac
:1013c0000a00be00020037008904e9000c00be00dc
:1013d0002d000700c5fd07002b000700adfc07002e
:1013e0000001be000c00be0007fd07000005be00a6
:1013f0000001be00bdfd07000006be00a2f32300f1
:10140000430d2c00a3fc0700809fbe000c00be0013
:10141000d2e32700d3f02b00b4fd07004f01be003c
:10142000f9fc07000006be000a01be00affd070080
:101430000a01be0097fc07000006be006148b90023
:1014400054fd07000005be0032082800e3952b007c
:10145000a6fd07000c01be008efc07000006be00c2
:101460000a00be000200280013f323009ffd0700be
:101470000c01be0087fc07004f06be004f05be00f2
:101480004f04be000000060003f023000200050028
:10149000889fbe008a9fbe00841f78007bfd0700e6
:1014a0004f00780011003300f0ff2f00838f6c0095
:1014b00006003b00040565000a00a700080037008d
:1014c00009f0a6001000200008003700820f540029
:1014d000838f5c00030039001000200001003e00f3
:1014e0000000200009f0a7000000ea004f05be0040
:0c14f0004f04be000000e00000000600f9
:020000040000fa
:1014fc000200fa00004f78001e4078000004e00063
:10150c00070035001e407800e94f500004003c00f5
:10151c001e4078000043b000004f78000c003700ec
:10152c001e407800e94f5000090034001e4078003e
:10153c00ef4f500006003c001e4078006a405000ff
:10154c00004f78001e4078001044b000004f780027
:10155c001e4078000080fa00000006000000fa002f
:10156c0000000000111180000020200000806000ad
:10157c000000e000fbff3a0000032000201188006f
:10158c00000000001111800000202000008060008d
:10159c000000e000fbff3a0020032000201188002f
:1015ac00000000001111800000202000008060006d
:1015bc000000e000fbff3a0000032000201188002f
:1015cc00000000001111800000202000008060004d
:1015dc000000e000fbff3a001003200020118800ff
:1015ec00000000001111800000202000008060002d
:1015fc000000e000fbff3a0080032000201188006f
:10160c00000000001111800000202000008060000c
:10161c000000e000fbff3a000003200020118800ce
:10162c0000000000111180000020200000806000ec
:10163c000000e000fbff3a000003200020118800ae
:10164c0000000000111180000020200000806000cc
:10165c000000e000fbff3a0010032000201188007e
:10166c000080fa00000006001200fa00000f98003b
:10167c000000eb00000f7800ab003700000000000a
:10168c001111800000202000008060000000e000ac
:10169c00fbff3a000003200020118800000000002e
:1016ac001111800000202000008060000000e0008c
:1016bc00fbff3a00200320002011880000000000ee
:1016cc001111800000202000008060000000e0006c
:1016dc00fbff3a006004200020118800000000008d
:1016ec001111800000202000008060000000e0004c
:1016fc00fbff3a0060042000201188000040eb0042
:10170c00404798000000eb00100798005800370085
:10171c009e007800500520000088b90080007800f9
:10172c001e00900000804000000040008e089000d9
:10173c000080400010007800004078006f4060008e
:10174c00604798009e007800500520000088b90082
:10175c00800078001e0090000080400000004000d7
:10176c008e0890000080400090007800000f200050
:10177c00008060004400de00704798009e007800f6
:10178c00500520000088b900800078001e009000f1
:10179c0000804000000040008e0890000080400057
:1017ac009000780000f02000008060004800de000f
:1017bc00004f98006e4090004dff07006047980066
:1017cc007e4090004aff0700704798000e4890003a
:1017dc0047ff0700004f9800ce4090006e409000ed
:1017ec0080c040007e40900080c040000e489000b9
:1017fc0000c040004047980000000000111180001c
:10180c0000202000008060000000e000fbff3a0098
:10181c000e4890000000fb00201188000000000022
:10182c001111800000202000008060000000e0000a
:10183c00fbff3a007e4090000000fb002011880066
:10184c0000000000111180000020200000806000ca
:10185c000000e000fbff3a006e4090000000fb002f
:10186c00201188001e0090000000e800100798006e
:10187c009e00900040052000808f5000a4ff340093
:10188c004e4090000040ea00404798004e409000c7
:10189c006f406000104f98004e4090008000fb009d
:1018ac00000f2000008060004480de00204f980074
:1018bc001e4890000eff0700104f98002e48900015
:1018cc000bff0700204f9800000000001111800052
:1018dc0000202000008060000000e000fbff3a00c8
:1018ec002e4890000000fb00201188000000000032
:1018fc001111800000202000008060000000e0003a
:10190c00fbff3a001e4890000000fb0020118800ed
:10191c00a400070011052000810f500001003a00bf
:10192c001e0fe9001e0fe8001e007800ea0f5000a1
:10193c0052ff340000000000111180000020200034
:10194c00008060000000e000fbff3a000003200074
:10195c0020118800000000001111800000202000e0
:10196c00008060000000e000fbff3a002003200034
:10197c0020118800000000001111800000202000c0
:10198c00008060000000e000fbff3a003004200003
:10199c0020118800000000001111800000202000a0
:1019ac00008060000000e000fbff3a0030032000e4
:1019bc00201188000040eb0050479800703a20003e
:1019cc0010079800490037001e00900000004000ee
:1019dc008e089000008040001000780000407800d5
:1019ec006f406000304f98001e00900000004000d7
:1019fc008e0890000080400090007800000f2000be
:101a0c00008060004400de00404f98001e009000f3
:101a1c00000040008e08900000804000900078008c
:101a2c0000f02000008060004800de00504f98005d
:101a3c003e489000aefe0700304f98004e48900094
:101a4c00abfe0700404f98005e489000a8fe0700d0
:101a5c00504f9800de4090003e48900080c04000ff
:101a6c004e48900080c040005e48900000c040008e
:101a7c005047980000000000111180000020200049
:101a8c00008060000000e000fbff3a005e48900020
:101a9c000000fb00201188000000000011118000e4
:101aac0000202000008060000000e000fbff3a00f6
:101abc004e4890000000fb00201188000000000040
:101acc001111800000202000008060000000e00068
:101adc00fbff3a003e4890000000fb0020118800fc
:101aec001e0090000000e800100798009e00900077
:101afc00703e2000808f5000b3ff34005e40900099
:101b0c000040ea00504798005e4090006f40600033
:101b1c00604f98005e4090008000fb00000f20009a
:101b2c00008060004480de00704f98006e4890008a
:101b3c006ffe0700604f98007e4890006cfe070017
:101b4c00704f980000000000111180000020200050
:101b5c00008060000000e000fbff3a007e4890002f
:101b6c000000fb0020118800000000001111800013
:101b7c0000202000008060000000e000fbff3a0025
:101b8c006e4890000000fb00201188000500070043
:101b9c0011052000810f500086ff32000080fa00f2
:101bac00000006000201fa00f10f20008e804000b8
:101bbc00001020000e004000010178008e0078001b
:101bcc00e00107001e4078000000fb000080fa00d6
:101bdc00000006000400fa00000f780011079800be
:101bec00f0ff0700cde2a800cd62a800cd42a8000e
:101bfc001e0078009cfe0700cde2a800cd62a80074
:101c0c00cd42a9001e00900097fe0700cde2a9006e
:101c1c00cd62a900cd42a8000080fa0000000600a9
:101c2c000200fa003400070000202000a101070088
:101c3c000000eb00000f78000d0037001e0078004c
:101c4c0080004000e0822000008040001e087800e8
:101c5c00703e20009e0050001e00780000014000e5
:101c6c00e0ff200000004100010878001e0fe80092
:101c7c00703e20009e007800808f5000efff3600f1
:101c8c00e082200070408800e0ff20008040880047
:101c9c00e0408000e20f500010003200e20f5000d4
:101cac0005003e000000e00008003200e10f50008b
:101cbc0008003200f6ff3700e30f50000900320035
:101ccc00e40f500009003200f1ff37004e0007000e
:101cdc00080037008b000700060037008d00070056
:101cec0004003700a900070002003700c4000700f9
:101cfc0000000000e6ff37000000fa00cc22ef00e5
:101d0c00c822ef0070802000603688008540a90052
:101d1c009540a9004382a9004362a9004342a80050
:101d2c004322a9004302a90042c2a90042a2a80072
:101d3c0041e2a800213a800000fe2f0000806000e4
:101d4c00203a8800313a800000e02f00808060004b
:101d5c009002200001007000303a8800213a800087
:101d6c00f0f32f0000806000203a88000000000093
:101d7c00113a800000022000008060000000e000aa
:101d8c00fbff320040a7a9002135800000fe2f0088
:101d9c00008060007000b300203588003136800070
:101dac0000fe2f00008060003000b3003036880049
:101dbc00d0072000401188009560a80021e2a800ff
:101dcc002342a800c422ef00300020000016880037
:101ddc00cc22ef000008200040168800cb00070042
:101dec00cde2a900cd62a900cd42a9001c28ef00cc
:101dfc004501070017010700de000700d4000700ab
:101e0c000080fa00000006000201fa000000000049
:101e1c00f60107000004e000fdff32000110200075
:101e2c008e8040000e00e8000101780080007800f0
:101e3c000e007800430107000e4092000004e00001
:101e4c0003003a001e407800e14f500001003200c0
:101e5c00cde2a8001e4090000000fb001103200002
:101e6c00810f50000f00320011032000810f500031
:101e7c0005003c00e50f500017003200f00f500039
:101e8c00120032001a00370021032000810f50008d
:101e9c000900320091052000810f50001100320022
:101eac001300370020812000d04088002000200043
:101ebc00e04088001000370060812000d04088008e
:101ecc0020002000e04088000b00370010002000ac
:101edc00e04088000800370030002000e040880017
:101eec000500370040002000e04088000200370069
:101efc00cde2a80000000000790107000080fa0084
:101f0c00000006000000fa001c28ef000080fa0018
:101f1c00000006000201fa00881f78000000000093
:101f2c00b20107000004e000fdff320001102000a8
:101f3c008e8040000e00e8000101780080007800df
:101f4c000e007800ff0007000e4092000004e00035
:101f5c0003003a001e4078000004e00001003a0043
:101f6c00cde2a800d84080001e4078008e00e8002a
:101f7c00a2010700008cbe00590107001c28ef00cd
:101f8c004f0478000080fa00000006000000fa0000
:101f9c000028ef00e00d2000c60007000000000044
:101fac000140800030062000808f5000fcff36007e
:101fbc00d0142000bf00070000000000014080008a
:101fcc00b0122000808f5000fcff3600e00d200086
:101fdc00b80007000000000001408000301f200006
:101fec00808f5000fcff36008140800070408000e4
:101ffc00f8fe07001c28ef000080fa000000060025
:10200c000200fa00889fbe00390037000000000073
:10201c0004c8bf000004e000fdff32004140800016
:10202c005040800000805000000f78001e007800a7
:10203c00cf80de0054fa07000002be009040800002
:10204c00a14080000001be000400be00a4fa0700fd
:10205c000004be0060408000cf80de004afa07001a
:10206c000002be00b0408000c14080000001be00f4
:10207c000400be009afa07000001be000800be0072
:10208c0081f907000004be0030408000cf80de00e4
:10209c003dfa07000001be000800be007af90700f7
:1020ac0018fa070000007800504188005141800068
:1020bc00f03f2000808f500002003400f03f2000e1
:1020cc0050418800504180000000e00001003d00bc
:1020dc002a28ef0050418000760007009e0078000f
:1020ec006140880050418000304088000468ef0057
:1020fc003e0107000004e000c4ff32001c28ef0082
:10210c004f04be000080fa00000006000000fa0038
:10211c000421ef008460a90021058000f0ff280055
:10212c000080600000e0a000200588009460a800fa
:10213c00d0162c001008880004a1a9000481a80066
:10214c000421a90005e1a8000080fa0000000600a7
:10215c000000fa000a21ef00703821007008880096
:10216c008500a9009500a90013e1a8000080fa00e1
:10217c00000006000000fa0001198000f0cf2f00cb
:10218c00008060000019880001198000f0f12f0018
:10219c00008060000060a000001988002043a800a7
:1021ac002143a9002063a8002223a9002343a800ef
:1021bc0011198000f0cf2f00008060000080a0007b
:1021cc001019880011198000f0ff210000806000b8
:1021dc001019880025e3a900f0c3b30024e3b7006d
:1021ec004119800000fe2f0000806000401988001b
:1021fc0028e3a9002603a9003119800090ff2f00c5
:10220c0000806000301988002703a90030002000ee
:10221c00801988002183a9001119800030fc2f003f
:10222c0000806000c000b300101988009119800074
:10223c0080ff2f00008060003000b30090198800f0
:10224c0085a0a90095a0a90021e3a8000080fa00b0
:10225c00000006000000fa00011c8000f0fc2f00ba
:10226c00008060000050a000001c8800011c800051
:10227c00c0ff2f00008060000010a000001c880030
:10228c0000302000401c880030002000501c8800ca
:10229c00d0002000101c8800c07f2000201c88006b
:1022ac008480a9009480a80081e3a8000080fa0033
:1022bc00000006000400fa0010079800000000005f
:1022cc0000128000620060000000e000fcff3a0099
:1022dc00cdc2a8001e009000401288000000eb0048
:1022ec00000f7800010037001e0fe800b05d2000e1
:1022fc009e007800808f5000fbff3400cdc2a900f7
:10230c000080fa00000006000000fa002828ef0008
:10231c002568ef002668ef000080fa000000060038
:10232c000200fa00004f780010c0b30025e8b70097
:10233c001e41780061822000824878000080fa00fb
:10234c00000006000e00fa004007980051079800a4
:10235c00620798000040eb00004f7800100020004e
:10236c00100798000000eb00200798000040eb00dd
:10237c00604798005500370041418000007d2000e7
:10238c00808f5000050036006e00900021c0b30015
:10239c0001487800500037000000000025c8bf003d
:1023ac000004e000f4ff32002828ef002568ef005d
:1023bc001e009000e20f500010003200e20f50009f
:1023cc0003003e00e10f5000060032003f003700d2
:1023dc00e30f500010003200e40f500024003200d4
:1023ec003a00370026c8bf00e24f500034003a00d4
:1023fc0020002000100798003400370026c8bf00ca
:10240c00804078004e009000014878003000200099
:10241c00100798002d003700de0090002e00900071
:10242c0000804000618220009140780001487800d3
:10243c00ee40900026c8bf0000c0400060479800e6
:10244c002e0090000000e800200798004e0090003d
:10245c00104078008080fb002e009000808f500090
:10246c0019003a00400020001007980017003700b0
:10247c006182200091407800714798006e40900076
:10248c008000fb007e4090000000fb0000804000bc
:10249c000000e000040032006e00900011c0b30098
:1024ac0001487800030037006e0090008040eb007c
:1024bc000148780010c0b300004f780003003700cb
:1024cc000000000001003700000000001e407800f2
:1024dc000004e000b0ff32000080fa0000000600ab
:1024ec000000fa0000000000111180000020200004
:1024fc00008060000000e000fbff3a0000032000b9
:10250c002011880000000000111180000020200024
:10251c00008060000000e000fbff3a002003200078
:10252c002011880000000000111180000020200004
:10253c00008060000000e000fbff3a000003200078
:10254c0020118800000000001111800000202000e4
:10255c00008060000000e000fbff3a001003200048
:10256c0020118800000000001111800000202000c4
:10257c00008060000000e000fbff3a0080032000b8
:10258c0020118800000000001111800000202000a4
:10259c00008060000000e000fbff3a000003200018
:1025ac002011880000000000111180000020200084
:1025bc00008060000000e000fbff3a0000032000f8
:1025cc002011880000000000111180000020200064
:1025dc00008060000000e000fbff3a0000032000d8
:1025ec00201188000080fa00000006000000fa00ac
:1025fc0025c8bf000080fa00000006000e00fa009b
:10260c00204f9800610798006000b800008fbe0052
:10261c002e4890000080fb0063005000cf80de004d
:10262c00d9f807000001be000000200001122400b0
:10263c005ff9070020079800310798000000eb00b5
:10264c0040079800190037004e009000ee009000f3
:10265c0000804000104078000000fb000003b10037
:10266c00cf80de00c8f807002e019000be0190005c
:10267c001bf907000001be001e00be0002f8070097
:10268c00008fbe0002002000031224002e009000d8
:10269c00be00900059f807002007980031079800f9
:1026ac004e0090000000e800400798002e48900073
:1026bc008080fb004e009000808f5000e2ff3c00b9
:0c26cc001e00be000080fa0000000600a6
:020000040000fa
:1026d8002e080000a00f0000000000000008000005
:1026e8001e000000000000002a0800000200000090
:1026f800020000004a010000fc470000040000003e
:1027080000000000ce1700000001000000000000db
:102718001e0800000c000000000000002c0800004b
:0c272800020000000000000000000000a3
:020000040000fa
:0200000401f009
:04000800ffff0000f6
:020000040000fa
:0200000401f009
:04000c00810000006f
:020000040000fa
:0200000401f009
:04001000a300000049
:020000040000fa
:0200000401f009
:040014005f00000089
:020000040000fa
:0200000401f009
:04001800f0000000f4
:00000001FF
